{
  "contractName": "Backend",
  "abi": [
    {
      "inputs": [],
      "stateMutability": "nonpayable",
      "type": "constructor"
    },
    {
      "anonymous": false,
      "inputs": [
        {
          "indexed": false,
          "internalType": "address",
          "name": "newAddress",
          "type": "address"
        }
      ],
      "name": "ContractCreated",
      "type": "event"
    },
    {
      "inputs": [
        {
          "internalType": "string",
          "name": "",
          "type": "string"
        }
      ],
      "name": "communities",
      "outputs": [
        {
          "internalType": "contract Community",
          "name": "",
          "type": "address"
        }
      ],
      "stateMutability": "view",
      "type": "function"
    },
    {
      "inputs": [
        {
          "internalType": "int256",
          "name": "",
          "type": "int256"
        }
      ],
      "name": "moderators",
      "outputs": [
        {
          "internalType": "contract Profile",
          "name": "",
          "type": "address"
        }
      ],
      "stateMutability": "view",
      "type": "function"
    },
    {
      "inputs": [],
      "name": "name",
      "outputs": [
        {
          "internalType": "string",
          "name": "",
          "type": "string"
        }
      ],
      "stateMutability": "view",
      "type": "function"
    },
    {
      "inputs": [
        {
          "internalType": "address",
          "name": "",
          "type": "address"
        }
      ],
      "name": "profiles",
      "outputs": [
        {
          "internalType": "contract Profile",
          "name": "",
          "type": "address"
        }
      ],
      "stateMutability": "view",
      "type": "function"
    },
    {
      "inputs": [
        {
          "internalType": "string",
          "name": "_username",
          "type": "string"
        }
      ],
      "name": "createUser",
      "outputs": [],
      "stateMutability": "nonpayable",
      "type": "function"
    },
    {
      "inputs": [
        {
          "internalType": "string",
          "name": "_communityName",
          "type": "string"
        }
      ],
      "name": "createCommunity",
      "outputs": [
        {
          "internalType": "address",
          "name": "",
          "type": "address"
        }
      ],
      "stateMutability": "nonpayable",
      "type": "function"
    },
    {
      "inputs": [
        {
          "internalType": "address",
          "name": "_profileAddress",
          "type": "address"
        }
      ],
      "name": "fetchProfile",
      "outputs": [
        {
          "internalType": "contract Profile",
          "name": "",
          "type": "address"
        }
      ],
      "stateMutability": "nonpayable",
      "type": "function"
    }
  ],
  "bytecode": "0x60c0604052600760809081527f4261636b656e640000000000000000000000000000000000000000000000000060a05260009061003c9082610125565b50600060025534801561004e57600080fd5b506101eb565b7f4e487b7100000000000000000000000000000000000000000000000000000000600052604160045260246000fd5b60028104600182168061009757607f821691505b6020821081036100d0577f4e487b7100000000000000000000000000000000000000000000000000000000600052602260045260246000fd5b50919050565b601f821115610120576000818152602081206020601f860104810160208610156100fd5750805b6020601f860104820191505b8181101561011c57828155600101610109565b5050505b505050565b815167ffffffffffffffff81111561013f5761013f610054565b6101538161014d8454610083565b846100d6565b602080601f83116001811461018c57600084156101705750858301515b60028086026008870290910a600019041982161786555061011c565b600085815260208120601f198616915b828110156101bb5788860151825594840194600190910190840161019c565b50858210156101db57878501516008601f88160260020a60001904191681555b5050505050600202600101905550565b6117c5806101fa6000396000f3fe60806040523480156200001157600080fd5b5060043610620000a4576000357c0100000000000000000000000000000000000000000000000000000000900480635443375d116200007f5780635443375d146200013457806388c023621462000163578063bbe15627146200018f578063e679292214620001bb57600080fd5b806306fdde0314620000a957806328adc24014620000cb578063507ffba5146200011b575b600080fd5b620000b3620001d2565b604051620000c2919062000430565b60405180910390f35b62000102620000dc36600462000494565b8051602081830181018051600182529282019190930120915254600160a060020a031681565b604051600160a060020a039091168152602001620000c2565b620001326200012c36600462000494565b62000268565b005b62000102620001453660046200054f565b600160a060020a039081166000908152600460205260409020541690565b620001026200017436600462000581565b600360205260009081526040902054600160a060020a031681565b62000102620001a03660046200054f565b600460205260009081526040902054600160a060020a031681565b62000102620001cc36600462000494565b620002e1565b60008054620001e1906200059b565b80601f01602080910402602001604051908101604052809291908181526020018280546200020f906200059b565b8015620002605780601f10620002345761010080835404028352916020019162000260565b820191906000526020600020905b8154815290600101906020018083116200024257829003601f168201915b505050505081565b6000816040516200027990620003ee565b62000285919062000430565b604051809103906000f080158015620002a2573d6000803e3d6000fd5b50336000908152600460205260409020805473ffffffffffffffffffffffffffffffffffffffff1916600160a060020a03929092169190911790555050565b600080604051620002f290620003fc565b60208082526009908201527f6c6f63616c686f737400000000000000000000000000000000000000000000006040820152606001604051809103906000f08015801562000343573d6000803e3d6000fd5b50905080600184604051620003599190620005f0565b9081526040519081900360200190208054600160a060020a039290921673ffffffffffffffffffffffffffffffffffffffff1990921691909117905560028054906000620003a7836200060e565b9091555050604051600160a060020a03821681527fcf78cf0d6f3d8371e1075c69c492ab4ec5d8cf23a1a239b6a51a1d00be7ca3129060200160405180910390a192915050565b610300806200065083390190565b610e40806200095083390190565b60005b83811015620004275781810151838201526020016200040d565b50506000910152565b6020815260008251806020840152620004518160408501602087016200040a565b601f01601f19169190910160400192915050565b7f4e487b7100000000000000000000000000000000000000000000000000000000600052604160045260246000fd5b600060208284031215620004a757600080fd5b813567ffffffffffffffff80821115620004c057600080fd5b818401915084601f830112620004d557600080fd5b813581811115620004ea57620004ea62000465565b604051601f8201601f19908116603f0116810190838211818310171562000515576200051562000465565b816040528281528760208487010111156200052f57600080fd5b826020860160208301376000928101602001929092525095945050505050565b6000602082840312156200056257600080fd5b8135600160a060020a03811681146200057a57600080fd5b9392505050565b6000602082840312156200059457600080fd5b5035919050565b600281046001821680620005b057607f821691505b602082108103620005ea577f4e487b7100000000000000000000000000000000000000000000000000000000600052602260045260246000fd5b50919050565b60008251620006048184602087016200040a565b9190910192915050565b60006001820162000648577f4e487b7100000000000000000000000000000000000000000000000000000000600052601160045260246000fd5b506001019056fe608060405234801561001057600080fd5b5060405161030038038061030083398101604081905261002f91610083565b60008054600160a060020a03191632179055600161004d82826101ee565b50506102b3565b7f4e487b7100000000000000000000000000000000000000000000000000000000600052604160045260246000fd5b6000602080838503121561009657600080fd5b82516001604060020a03808211156100ad57600080fd5b818501915085601f8301126100c157600080fd5b8151818111156100d3576100d3610054565b604051601f8201601f19908116603f011681019083821181831017156100fb576100fb610054565b81604052828152888684870101111561011357600080fd5b600093505b828410156101355784840186015181850187015292850192610118565b600086848301015280965050505050505092915050565b60028104600182168061016057607f821691505b602082108103610199577f4e487b7100000000000000000000000000000000000000000000000000000000600052602260045260246000fd5b50919050565b601f8211156101e9576000818152602081206020601f860104810160208610156101c65750805b6020601f860104820191505b818110156101e5578281556001016101d2565b5050505b505050565b81516001604060020a0381111561020757610207610054565b61021b81610215845461014c565b8461019f565b602080601f83116001811461025457600084156102385750858301515b60028086026008870290910a60001904198216178655506101e5565b600085815260208120601f198616915b8281101561028357888601518255948401946001909101908401610264565b50858210156102a357878501516008601f88160260020a60001904191681555b5050505050600202600101905550565b603f806102c16000396000f3fe6080604052600080fdfea2646970667358221220cfa8ff362512fed00e5866fcb5ddb045a2c7922129975540f421b6f06ca3d51564736f6c6343000811003360c0604052600960809081527f436f6d6d756e697479000000000000000000000000000000000000000000000060a05260009061003c90826101f1565b506000600355604051610e40380380610e40833981016040819052610060916102b6565b60078054600160a060020a031916339081179091556040517f5443375d000000000000000000000000000000000000000000000000000000008152326004820152635443375d906024016020604051808303816000875af11580156100c9573d6000803e3d6000fd5b505050506040513d601f19601f820116820180604052508101906100ed919061037f565b60018054600160a060020a031916600160a060020a0392909216919091179055600261011982826101f1565b50506103af565b7f4e487b7100000000000000000000000000000000000000000000000000000000600052604160045260246000fd5b60028104600182168061016357607f821691505b60208210810361019c577f4e487b7100000000000000000000000000000000000000000000000000000000600052602260045260246000fd5b50919050565b601f8211156101ec576000818152602081206020601f860104810160208610156101c95750805b6020601f860104820191505b818110156101e8578281556001016101d5565b5050505b505050565b81516001604060020a0381111561020a5761020a610120565b61021e81610218845461014f565b846101a2565b602080601f831160018114610257576000841561023b5750858301515b60028086026008870290910a60001904198216178655506101e8565b600085815260208120601f198616915b8281101561028657888601518255948401946001909101908401610267565b50858210156102a657878501516008601f88160260020a60001904191681555b5050505050600202600101905550565b600060208083850312156102c957600080fd5b82516001604060020a03808211156102e057600080fd5b818501915085601f8301126102f457600080fd5b81518181111561030657610306610120565b604051601f8201601f19908116603f0116810190838211818310171561032e5761032e610120565b81604052828152888684870101111561034657600080fd5b600093505b82841015610368578484018601518185018701529285019261034b565b600086848301015280965050505050505092915050565b60006020828403121561039157600080fd5b8151600160a060020a03811681146103a857600080fd5b9392505050565b610a82806103be6000396000f3fe608060405234801561001057600080fd5b506004361061009a576000357c0100000000000000000000000000000000000000000000000000000000900480635443375d116100785780635443375d146101115780636d5a339b14610124578063b8d3a21a1461012c578063ea00f39d1461013f57600080fd5b806306fdde031461009f5780630b1e7f83146100bd5780634d853ee5146100fe575b600080fd5b6100a7610154565b6040516100b49190610312565b60405180910390f35b6100e66100cb366004610360565b600560205260009081526040902054600160a060020a031681565b604051600160a060020a0390911681526020016100b4565b6001546100e690600160a060020a031681565b6100e661011f366004610391565b6101e2565b6100a7610272565b6006546100e690600160a060020a031681565b61015261014d3660046103e4565b61027f565b005b6000805461016190610495565b80601f016020809104026020016040519081016040528092919081815260200182805461018d90610495565b80156101da5780601f106101af576101008083540402835291602001916101da565b820191906000526020600020905b8154815290600101906020018083116101bd57829003601f168201915b505050505081565b6007546040517f5443375d000000000000000000000000000000000000000000000000000000008152600160a060020a0383811660048301526000921690635443375d906024016020604051808303816000875af1158015610248573d6000803e3d6000fd5b505050506040513d601f19601f8201168201806040525081019061026c91906104e8565b92915050565b6002805461016190610495565b8060405161028c90610305565b6102969190610312565b604051809103906000f0801580156102b2573d6000803e3d6000fd5b50600380546000908152600560205260408120805473ffffffffffffffffffffffffffffffffffffffff1916600160a060020a0394909416939093179092558054916102fd83610505565b919050555050565b6105078061054683390190565b600060208083528351808285015260005b8181101561033f57858101830151858201604001528201610323565b506000604082860101526040601f19601f8301168501019250505092915050565b60006020828403121561037257600080fd5b5035919050565b600160a060020a038116811461038e57600080fd5b50565b6000602082840312156103a357600080fd5b81356103ae81610379565b9392505050565b7f4e487b7100000000000000000000000000000000000000000000000000000000600052604160045260246000fd5b6000602082840312156103f657600080fd5b813567ffffffffffffffff8082111561040e57600080fd5b818401915084601f83011261042257600080fd5b813581811115610434576104346103b5565b604051601f8201601f19908116603f0116810190838211818310171561045c5761045c6103b5565b8160405282815287602084870101111561047557600080fd5b826020860160208301376000928101602001929092525095945050505050565b6002810460018216806104a957607f821691505b6020821081036104e2577f4e487b7100000000000000000000000000000000000000000000000000000000600052602260045260246000fd5b50919050565b6000602082840312156104fa57600080fd5b81516103ae81610379565b60006001820161053e577f4e487b7100000000000000000000000000000000000000000000000000000000600052601160045260246000fd5b506001019056fe608060405234801561001057600080fd5b5060405161050738038061050783398101604081905261002f91610087565b60018054600160a060020a03191632179055600061004d82826101f2565b5050426002556102b7565b7f4e487b7100000000000000000000000000000000000000000000000000000000600052604160045260246000fd5b6000602080838503121561009a57600080fd5b82516001604060020a03808211156100b157600080fd5b818501915085601f8301126100c557600080fd5b8151818111156100d7576100d7610058565b604051601f8201601f19908116603f011681019083821181831017156100ff576100ff610058565b81604052828152888684870101111561011757600080fd5b600093505b82841015610139578484018601518185018701529285019261011c565b600086848301015280965050505050505092915050565b60028104600182168061016457607f821691505b60208210810361019d577f4e487b7100000000000000000000000000000000000000000000000000000000600052602260045260246000fd5b50919050565b601f8211156101ed576000818152602081206020601f860104810160208610156101ca5750805b6020601f860104820191505b818110156101e9578281556001016101d6565b5050505b505050565b81516001604060020a0381111561020b5761020b610058565b61021f816102198454610150565b846101a3565b602080601f831160018114610258576000841561023c5750858301515b60028086026008870290910a60001904198216178655506101e9565b600085815260208120601f198616915b8281101561028757888601518255948401946001909101908401610268565b50858210156102a757878501516008601f88160260020a60001904191681555b5050505050600202600101905550565b610241806102c66000396000f3fe608060405234801561001057600080fd5b506004361061005d577c010000000000000000000000000000000000000000000000000000000060003504638a4d5a678114610062578063a6c3e6b914610080578063b3cb786d146100c5575b600080fd5b61006a6100dc565b604051610077919061016a565b60405180910390f35b6001546100a09073ffffffffffffffffffffffffffffffffffffffff1681565b60405173ffffffffffffffffffffffffffffffffffffffff9091168152602001610077565b6100ce60025481565b604051908152602001610077565b600080546100e9906101b8565b80601f0160208091040260200160405190810160405280929190818152602001828054610115906101b8565b80156101625780601f1061013757610100808354040283529160200191610162565b820191906000526020600020905b81548152906001019060200180831161014557829003601f168201915b505050505081565b600060208083528351808285015260005b818110156101975785810183015185820160400152820161017b565b506000604082860101526040601f19601f8301168501019250505092915050565b6002810460018216806101cc57607f821691505b602082108103610205577f4e487b7100000000000000000000000000000000000000000000000000000000600052602260045260246000fd5b5091905056fea264697066735822122081ca2a5004c08cba75ce1500a95792591737c153d2ee8991a9312df6e77748ce64736f6c63430008110033a264697066735822122060762fa263f10b25f5f3f058f71ece601f4e474ee20e7ad4e471ab339d8d988764736f6c63430008110033a264697066735822122036343922c96f8a67d6a16195f4d69e4502df6f71261b80009b5985145b3040e264736f6c63430008110033",
  "immutableReferences": {},
  "source": "pragma solidity ^0.8.6;\r\n\r\n// SPDX-License-Identifier: MIT\r\n\r\nimport \"./Profile.sol\";\r\nimport \"./Community.sol\";\r\n\r\ncontract Backend {\r\n    string public name = \"Backend\";\r\n\r\n    mapping(string => Community) public communities;\r\n    uint256 private totalCommunities = 0;\r\n    mapping(int256 => Profile) public moderators;\r\n    mapping(address => Profile) public profiles;\r\n\r\n    constructor() {}\r\n\r\n    event ContractCreated(address newAddress);\r\n\r\n    function createUser(string memory _username) public {\r\n        // TODO:\r\n        // if() check if user already exists\r\n        // maybe they can just recreate their profile if they createUser\r\n\r\n        Profile profile = new Profile(_username);\r\n        profiles[msg.sender] = profile;\r\n    }\r\n\r\n    function createCommunity(string memory _communityName)\r\n        public\r\n        returns (address)\r\n    {\r\n        // Localhost should be sidechain.\r\n        Community community = new Community(\"localhost\");\r\n        communities[_communityName] = community;\r\n        totalCommunities++;\r\n        emit ContractCreated(address(community));\r\n        return address(community);\r\n    }\r\n\r\n    function fetchProfile(address _profileAddress) public returns (Profile) {\r\n        return profiles[_profileAddress];\r\n    }\r\n}\r\n",
  "sourcePath": "C:\\Users\\John\\Code\\decentragram\\decentragram\\src\\contracts\\Backend.sol",
  "compiler": {
    "name": "solc",
    "version": "0.8.17+commit.8df45f5f.Emscripten.clang"
  },
  "schemaVersion": "3.4.11",
  "updatedAt": "2023-01-18T11:55:34.157Z",
  "devdoc": {
    "kind": "dev",
    "methods": {},
    "version": 1
  },
  "userdoc": {
    "kind": "user",
    "methods": {},
    "version": 1
  }
}