{
  "contractName": "Community",
  "abi": [
    {
      "inputs": [
        {
          "internalType": "string",
          "name": "_hosting",
          "type": "string"
        }
      ],
      "stateMutability": "payable",
      "type": "constructor"
    },
    {
      "inputs": [],
      "name": "BACKEND_CONTRACT_ADDRESS",
      "outputs": [
        {
          "internalType": "address",
          "name": "",
          "type": "address"
        }
      ],
      "stateMutability": "view",
      "type": "function"
    },
    {
      "inputs": [],
      "name": "founder",
      "outputs": [
        {
          "internalType": "contract Profile",
          "name": "",
          "type": "address"
        }
      ],
      "stateMutability": "view",
      "type": "function"
    },
    {
      "inputs": [],
      "name": "hosting",
      "outputs": [
        {
          "internalType": "string",
          "name": "",
          "type": "string"
        }
      ],
      "stateMutability": "view",
      "type": "function"
    },
    {
      "inputs": [],
      "name": "name",
      "outputs": [
        {
          "internalType": "string",
          "name": "",
          "type": "string"
        }
      ],
      "stateMutability": "view",
      "type": "function"
    },
    {
      "inputs": [
        {
          "internalType": "uint256",
          "name": "",
          "type": "uint256"
        }
      ],
      "name": "posts",
      "outputs": [
        {
          "internalType": "contract Post",
          "name": "",
          "type": "address"
        }
      ],
      "stateMutability": "view",
      "type": "function"
    },
    {
      "inputs": [
        {
          "internalType": "address",
          "name": "_profile",
          "type": "address"
        }
      ],
      "name": "fetchProfile",
      "outputs": [
        {
          "internalType": "contract Profile",
          "name": "",
          "type": "address"
        }
      ],
      "stateMutability": "nonpayable",
      "type": "function"
    },
    {
      "inputs": [
        {
          "internalType": "string",
          "name": "_content",
          "type": "string"
        }
      ],
      "name": "makePost",
      "outputs": [],
      "stateMutability": "nonpayable",
      "type": "function"
    }
  ],
  "bytecode": "0x60c0604052600960809081527f436f6d6d756e697479000000000000000000000000000000000000000000000060a05260009061003c90826101f1565b506000600355604051610e40380380610e40833981016040819052610060916102b6565b60078054600160a060020a031916339081179091556040517f5443375d000000000000000000000000000000000000000000000000000000008152326004820152635443375d906024016020604051808303816000875af11580156100c9573d6000803e3d6000fd5b505050506040513d601f19601f820116820180604052508101906100ed919061037f565b60018054600160a060020a031916600160a060020a0392909216919091179055600261011982826101f1565b50506103af565b7f4e487b7100000000000000000000000000000000000000000000000000000000600052604160045260246000fd5b60028104600182168061016357607f821691505b60208210810361019c577f4e487b7100000000000000000000000000000000000000000000000000000000600052602260045260246000fd5b50919050565b601f8211156101ec576000818152602081206020601f860104810160208610156101c95750805b6020601f860104820191505b818110156101e8578281556001016101d5565b5050505b505050565b81516001604060020a0381111561020a5761020a610120565b61021e81610218845461014f565b846101a2565b602080601f831160018114610257576000841561023b5750858301515b60028086026008870290910a60001904198216178655506101e8565b600085815260208120601f198616915b8281101561028657888601518255948401946001909101908401610267565b50858210156102a657878501516008601f88160260020a60001904191681555b5050505050600202600101905550565b600060208083850312156102c957600080fd5b82516001604060020a03808211156102e057600080fd5b818501915085601f8301126102f457600080fd5b81518181111561030657610306610120565b604051601f8201601f19908116603f0116810190838211818310171561032e5761032e610120565b81604052828152888684870101111561034657600080fd5b600093505b82841015610368578484018601518185018701529285019261034b565b600086848301015280965050505050505092915050565b60006020828403121561039157600080fd5b8151600160a060020a03811681146103a857600080fd5b9392505050565b610a82806103be6000396000f3fe608060405234801561001057600080fd5b506004361061009a576000357c0100000000000000000000000000000000000000000000000000000000900480635443375d116100785780635443375d146101115780636d5a339b14610124578063b8d3a21a1461012c578063ea00f39d1461013f57600080fd5b806306fdde031461009f5780630b1e7f83146100bd5780634d853ee5146100fe575b600080fd5b6100a7610154565b6040516100b49190610312565b60405180910390f35b6100e66100cb366004610360565b600560205260009081526040902054600160a060020a031681565b604051600160a060020a0390911681526020016100b4565b6001546100e690600160a060020a031681565b6100e661011f366004610391565b6101e2565b6100a7610272565b6006546100e690600160a060020a031681565b61015261014d3660046103e4565b61027f565b005b6000805461016190610495565b80601f016020809104026020016040519081016040528092919081815260200182805461018d90610495565b80156101da5780601f106101af576101008083540402835291602001916101da565b820191906000526020600020905b8154815290600101906020018083116101bd57829003601f168201915b505050505081565b6007546040517f5443375d000000000000000000000000000000000000000000000000000000008152600160a060020a0383811660048301526000921690635443375d906024016020604051808303816000875af1158015610248573d6000803e3d6000fd5b505050506040513d601f19601f8201168201806040525081019061026c91906104e8565b92915050565b6002805461016190610495565b8060405161028c90610305565b6102969190610312565b604051809103906000f0801580156102b2573d6000803e3d6000fd5b50600380546000908152600560205260408120805473ffffffffffffffffffffffffffffffffffffffff1916600160a060020a0394909416939093179092558054916102fd83610505565b919050555050565b6105078061054683390190565b600060208083528351808285015260005b8181101561033f57858101830151858201604001528201610323565b506000604082860101526040601f19601f8301168501019250505092915050565b60006020828403121561037257600080fd5b5035919050565b600160a060020a038116811461038e57600080fd5b50565b6000602082840312156103a357600080fd5b81356103ae81610379565b9392505050565b7f4e487b7100000000000000000000000000000000000000000000000000000000600052604160045260246000fd5b6000602082840312156103f657600080fd5b813567ffffffffffffffff8082111561040e57600080fd5b818401915084601f83011261042257600080fd5b813581811115610434576104346103b5565b604051601f8201601f19908116603f0116810190838211818310171561045c5761045c6103b5565b8160405282815287602084870101111561047557600080fd5b826020860160208301376000928101602001929092525095945050505050565b6002810460018216806104a957607f821691505b6020821081036104e2577f4e487b7100000000000000000000000000000000000000000000000000000000600052602260045260246000fd5b50919050565b6000602082840312156104fa57600080fd5b81516103ae81610379565b60006001820161053e577f4e487b7100000000000000000000000000000000000000000000000000000000600052601160045260246000fd5b506001019056fe608060405234801561001057600080fd5b5060405161050738038061050783398101604081905261002f91610087565b60018054600160a060020a03191632179055600061004d82826101f2565b5050426002556102b7565b7f4e487b7100000000000000000000000000000000000000000000000000000000600052604160045260246000fd5b6000602080838503121561009a57600080fd5b82516001604060020a03808211156100b157600080fd5b818501915085601f8301126100c557600080fd5b8151818111156100d7576100d7610058565b604051601f8201601f19908116603f011681019083821181831017156100ff576100ff610058565b81604052828152888684870101111561011757600080fd5b600093505b82841015610139578484018601518185018701529285019261011c565b600086848301015280965050505050505092915050565b60028104600182168061016457607f821691505b60208210810361019d577f4e487b7100000000000000000000000000000000000000000000000000000000600052602260045260246000fd5b50919050565b601f8211156101ed576000818152602081206020601f860104810160208610156101ca5750805b6020601f860104820191505b818110156101e9578281556001016101d6565b5050505b505050565b81516001604060020a0381111561020b5761020b610058565b61021f816102198454610150565b846101a3565b602080601f831160018114610258576000841561023c5750858301515b60028086026008870290910a60001904198216178655506101e9565b600085815260208120601f198616915b8281101561028757888601518255948401946001909101908401610268565b50858210156102a757878501516008601f88160260020a60001904191681555b5050505050600202600101905550565b610241806102c66000396000f3fe608060405234801561001057600080fd5b506004361061005d577c010000000000000000000000000000000000000000000000000000000060003504638a4d5a678114610062578063a6c3e6b914610080578063b3cb786d146100c5575b600080fd5b61006a6100dc565b604051610077919061016a565b60405180910390f35b6001546100a09073ffffffffffffffffffffffffffffffffffffffff1681565b60405173ffffffffffffffffffffffffffffffffffffffff9091168152602001610077565b6100ce60025481565b604051908152602001610077565b600080546100e9906101b8565b80601f0160208091040260200160405190810160405280929190818152602001828054610115906101b8565b80156101625780601f1061013757610100808354040283529160200191610162565b820191906000526020600020905b81548152906001019060200180831161014557829003601f168201915b505050505081565b600060208083528351808285015260005b818110156101975785810183015185820160400152820161017b565b506000604082860101526040601f19601f8301168501019250505092915050565b6002810460018216806101cc57607f821691505b602082108103610205577f4e487b7100000000000000000000000000000000000000000000000000000000600052602260045260246000fd5b5091905056fea264697066735822122081ca2a5004c08cba75ce1500a95792591737c153d2ee8991a9312df6e77748ce64736f6c63430008110033a264697066735822122060762fa263f10b25f5f3f058f71ece601f4e474ee20e7ad4e471ab339d8d988764736f6c63430008110033",
  "immutableReferences": {},
  "source": "pragma solidity ^0.8.6;\r\n\r\n// SPDX-License-Identifier: MIT\r\n\r\nimport \"./Post.sol\";\r\nimport \"./Profile.sol\";\r\nimport \"./Backend.sol\";\r\n\r\ninterface IBackend {\r\n    function count() external view returns (uint256);\r\n\r\n    function fetchProfile(address _profileAddress) external returns (Profile);\r\n}\r\n\r\n// contract Counter {\r\n//     uint public count;\r\n\r\n//     function increment() external {\r\n//         count += 1;\r\n//     }\r\n// }\r\n\r\n// contract Interaction {\r\n//     address counterAddr;\r\n\r\n//     function setCounterAddr(address _counter) public payable {\r\n//        counterAddr = _counter;\r\n//     }\r\n\r\n//     function getCount() external view returns (uint) {\r\n//         return ICounter(counterAddr).count();\r\n//     }\r\n// }\r\n\r\ncontract Community {\r\n    string public name = \"Community\";\r\n    Profile public founder;\r\n    string public hosting; // Network the community is being hosted on, e.g. localhost:7545, etc.\r\n\r\n    uint256 postCount = 0;\r\n\r\n    mapping(address => Profile) subscribers;\r\n    mapping(uint256 => Post) public posts;\r\n\r\n    address public BACKEND_CONTRACT_ADDRESS;\r\n\r\n    address private backend;\r\n\r\n    function fetchProfile(address _profile) external returns (Profile) {\r\n        return IBackend(backend).fetchProfile(_profile);\r\n    }\r\n\r\n    function makePost(string memory _content) public {\r\n        posts[postCount] = new Post(_content);\r\n        postCount++;\r\n    }\r\n\r\n    constructor(string memory _hosting) payable {\r\n        backend = msg.sender;\r\n        founder = IBackend(backend).fetchProfile(tx.origin);\r\n        hosting = _hosting;\r\n    }\r\n}\r\n",
  "sourcePath": "C:\\Users\\John\\Code\\decentragram\\decentragram\\src\\contracts\\Community.sol",
  "compiler": {
    "name": "solc",
    "version": "0.8.17+commit.8df45f5f.Emscripten.clang"
  },
  "schemaVersion": "3.4.11",
  "updatedAt": "2023-01-18T11:55:34.174Z",
  "devdoc": {
    "kind": "dev",
    "methods": {},
    "version": 1
  },
  "userdoc": {
    "kind": "user",
    "methods": {},
    "version": 1
  }
}