{
  "contractName": "Post",
  "abi": [
    {
      "inputs": [
        {
          "internalType": "string",
          "name": "_content",
          "type": "string"
        }
      ],
      "stateMutability": "nonpayable",
      "type": "constructor"
    },
    {
      "inputs": [],
      "name": "author",
      "outputs": [
        {
          "internalType": "address payable",
          "name": "",
          "type": "address"
        }
      ],
      "stateMutability": "view",
      "type": "function"
    },
    {
      "inputs": [],
      "name": "content",
      "outputs": [
        {
          "internalType": "string",
          "name": "",
          "type": "string"
        }
      ],
      "stateMutability": "view",
      "type": "function"
    },
    {
      "inputs": [],
      "name": "postTime",
      "outputs": [
        {
          "internalType": "uint256",
          "name": "",
          "type": "uint256"
        }
      ],
      "stateMutability": "view",
      "type": "function"
    }
  ],
  "bytecode": "0x608060405234801561001057600080fd5b5060405161050738038061050783398101604081905261002f91610087565b60018054600160a060020a03191632179055600061004d82826101f2565b5050426002556102b7565b7f4e487b7100000000000000000000000000000000000000000000000000000000600052604160045260246000fd5b6000602080838503121561009a57600080fd5b82516001604060020a03808211156100b157600080fd5b818501915085601f8301126100c557600080fd5b8151818111156100d7576100d7610058565b604051601f8201601f19908116603f011681019083821181831017156100ff576100ff610058565b81604052828152888684870101111561011757600080fd5b600093505b82841015610139578484018601518185018701529285019261011c565b600086848301015280965050505050505092915050565b60028104600182168061016457607f821691505b60208210810361019d577f4e487b7100000000000000000000000000000000000000000000000000000000600052602260045260246000fd5b50919050565b601f8211156101ed576000818152602081206020601f860104810160208610156101ca5750805b6020601f860104820191505b818110156101e9578281556001016101d6565b5050505b505050565b81516001604060020a0381111561020b5761020b610058565b61021f816102198454610150565b846101a3565b602080601f831160018114610258576000841561023c5750858301515b60028086026008870290910a60001904198216178655506101e9565b600085815260208120601f198616915b8281101561028757888601518255948401946001909101908401610268565b50858210156102a757878501516008601f88160260020a60001904191681555b5050505050600202600101905550565b610241806102c66000396000f3fe608060405234801561001057600080fd5b506004361061005d577c010000000000000000000000000000000000000000000000000000000060003504638a4d5a678114610062578063a6c3e6b914610080578063b3cb786d146100c5575b600080fd5b61006a6100dc565b604051610077919061016a565b60405180910390f35b6001546100a09073ffffffffffffffffffffffffffffffffffffffff1681565b60405173ffffffffffffffffffffffffffffffffffffffff9091168152602001610077565b6100ce60025481565b604051908152602001610077565b600080546100e9906101b8565b80601f0160208091040260200160405190810160405280929190818152602001828054610115906101b8565b80156101625780601f1061013757610100808354040283529160200191610162565b820191906000526020600020905b81548152906001019060200180831161014557829003601f168201915b505050505081565b600060208083528351808285015260005b818110156101975785810183015185820160400152820161017b565b506000604082860101526040601f19601f8301168501019250505092915050565b6002810460018216806101cc57607f821691505b602082108103610205577f4e487b7100000000000000000000000000000000000000000000000000000000600052602260045260246000fd5b5091905056fea264697066735822122081ca2a5004c08cba75ce1500a95792591737c153d2ee8991a9312df6e77748ce64736f6c63430008110033",
  "immutableReferences": {},
  "source": "pragma solidity ^0.8.6;\r\n\r\n// SPDX-License-Identifier: MIT\r\n\r\ncontract Post {\r\n    string public content;\r\n    address payable public author;\r\n    uint256 public postTime;\r\n\r\n    constructor(string memory _content) {\r\n        author = payable(tx.origin);\r\n        content = _content;\r\n        postTime = block.timestamp;\r\n    }\r\n}\r\n",
  "sourcePath": "C:\\Users\\John\\Code\\decentragram\\decentragram\\src\\contracts\\Post.sol",
  "compiler": {
    "name": "solc",
    "version": "0.8.17+commit.8df45f5f.Emscripten.clang"
  },
  "schemaVersion": "3.4.11",
  "updatedAt": "2023-01-18T11:55:34.196Z",
  "devdoc": {
    "kind": "dev",
    "methods": {},
    "version": 1
  },
  "userdoc": {
    "kind": "user",
    "methods": {},
    "version": 1
  }
}