{
  "contractName": "SimpleTest",
  "abi": [
    {
      "inputs": [],
      "stateMutability": "nonpayable",
      "type": "constructor"
    },
    {
      "inputs": [],
      "name": "count",
      "outputs": [
        {
          "internalType": "int256",
          "name": "",
          "type": "int256"
        }
      ],
      "stateMutability": "view",
      "type": "function"
    },
    {
      "inputs": [],
      "name": "name",
      "outputs": [
        {
          "internalType": "string",
          "name": "",
          "type": "string"
        }
      ],
      "stateMutability": "view",
      "type": "function"
    },
    {
      "inputs": [],
      "name": "payCreator",
      "outputs": [],
      "stateMutability": "payable",
      "type": "function"
    }
  ],
  "bytecode": "0x6000805560c0604052600460809081527f4a6f686e0000000000000000000000000000000000000000000000000000000060a0526001906100409082610136565b5034801561004d57600080fd5b5060028054600160a060020a031916331790556101fc565b7f4e487b7100000000000000000000000000000000000000000000000000000000600052604160045260246000fd5b6002810460018216806100a857607f821691505b6020821081036100e1577f4e487b7100000000000000000000000000000000000000000000000000000000600052602260045260246000fd5b50919050565b601f821115610131576000818152602081206020601f8601048101602086101561010e5750805b6020601f860104820191505b8181101561012d5782815560010161011a565b5050505b505050565b815167ffffffffffffffff81111561015057610150610065565b6101648161015e8454610094565b846100e7565b602080601f83116001811461019d57600084156101815750858301515b60028086026008870290910a600019041982161786555061012d565b600085815260208120601f198616915b828110156101cc578886015182559484019460019091019084016101ad565b50858210156101ec57878501516008601f88160260020a60001904191681555b5050505050600202600101905550565b6102cb8061020b6000396000f3fe608060405260043610610050577c0100000000000000000000000000000000000000000000000000000000600035046306661abd811461005557806306fdde031461007e578063e00824bb146100a0575b600080fd5b34801561006157600080fd5b5061006b60005481565b6040519081526020015b60405180910390f35b34801561008a57600080fd5b506100936100aa565b6040516100759190610195565b6100a8610138565b005b600180546100b7906101e3565b80601f01602080910402602001604051908101604052809291908181526020018280546100e3906101e3565b80156101305780601f1061010557610100808354040283529160200191610130565b820191906000526020600020905b81548152906001019060200180831161011357829003601f168201915b505050505081565b60025460405173ffffffffffffffffffffffffffffffffffffffff909116903480156108fc02916000818181858888f1935050505015801561017e573d6000803e3d6000fd5b5060008054908061018e83610236565b9190505550565b600060208083528351808285015260005b818110156101c2578581018301518582016040015282016101a6565b506000604082860101526040601f19601f8301168501019250505092915050565b6002810460018216806101f757607f821691505b602082108103610230577f4e487b7100000000000000000000000000000000000000000000000000000000600052602260045260246000fd5b50919050565b60007f7fffffffffffffffffffffffffffffffffffffffffffffffffffffffffffffff820361028e577f4e487b7100000000000000000000000000000000000000000000000000000000600052601160045260246000fd5b506001019056fea26469706673582212208359e1fbbc7f70dc17b05bcbe2438b50b56c7dd8519818e7f3ad65a02174267864736f6c63430008110033",
  "immutableReferences": {},
  "source": "pragma solidity ^0.8.5;\r\n\r\ncontract SimpleTest {\r\n    int256 public count = 0;\r\n    string public name = \"John\";\r\n    address payable creator;\r\n\r\n    constructor() {\r\n        creator = payable(msg.sender);\r\n    }\r\n\r\n    function payCreator() public payable {\r\n        creator.transfer(msg.value);\r\n        count++;\r\n    }\r\n}\r\n",
  "sourcePath": "C:\\Users\\John\\Code\\decentragram\\decentragram\\src\\contracts\\SimpleTest.sol",
  "compiler": {
    "name": "solc",
    "version": "0.8.17+commit.8df45f5f.Emscripten.clang"
  },
  "schemaVersion": "3.4.11",
  "updatedAt": "2023-01-18T11:55:34.219Z",
  "devdoc": {
    "kind": "dev",
    "methods": {},
    "version": 1
  },
  "userdoc": {
    "kind": "user",
    "methods": {},
    "version": 1
  }
}